{
  "contractName": "AgriContract",
  "abi": [
    {
      "anonymous": false,
      "inputs": [
        {
          "indexed": false,
          "internalType": "uint256",
          "name": "productId",
          "type": "uint256"
        }
      ],
      "name": "ProductCertified",
      "type": "event"
    },
    {
      "anonymous": false,
      "inputs": [
        {
          "indexed": false,
          "internalType": "uint256",
          "name": "productId",
          "type": "uint256"
        },
        {
          "indexed": false,
          "internalType": "address",
          "name": "producer",
          "type": "address"
        }
      ],
      "name": "ProductCreated",
      "type": "event"
    },
    {
      "anonymous": false,
      "inputs": [
        {
          "indexed": false,
          "internalType": "uint256",
          "name": "productId",
          "type": "uint256"
        },
        {
          "indexed": false,
          "internalType": "address",
          "name": "distributor",
          "type": "address"
        }
      ],
      "name": "ProductDistributed",
      "type": "event"
    },
    {
      "anonymous": false,
      "inputs": [
        {
          "indexed": false,
          "internalType": "uint256",
          "name": "productId",
          "type": "uint256"
        },
        {
          "indexed": false,
          "internalType": "address",
          "name": "retailer",
          "type": "address"
        }
      ],
      "name": "ProductSold",
      "type": "event"
    },
    {
      "inputs": [],
      "name": "productCount",
      "outputs": [
        {
          "internalType": "uint256",
          "name": "",
          "type": "uint256"
        }
      ],
      "stateMutability": "view",
      "type": "function"
    },
    {
      "inputs": [
        {
          "internalType": "uint256",
          "name": "",
          "type": "uint256"
        }
      ],
      "name": "products",
      "outputs": [
        {
          "internalType": "string",
          "name": "name",
          "type": "string"
        },
        {
          "internalType": "string",
          "name": "description",
          "type": "string"
        },
        {
          "internalType": "uint256",
          "name": "price",
          "type": "uint256"
        },
        {
          "internalType": "address",
          "name": "producer",
          "type": "address"
        },
        {
          "internalType": "address",
          "name": "distributor",
          "type": "address"
        },
        {
          "internalType": "address",
          "name": "retailer",
          "type": "address"
        },
        {
          "internalType": "bool",
          "name": "isCertified",
          "type": "bool"
        },
        {
          "internalType": "string",
          "name": "location",
          "type": "string"
        }
      ],
      "stateMutability": "view",
      "type": "function"
    },
    {
      "inputs": [
        {
          "internalType": "string",
          "name": "_name",
          "type": "string"
        },
        {
          "internalType": "string",
          "name": "_description",
          "type": "string"
        },
        {
          "internalType": "uint256",
          "name": "_price",
          "type": "uint256"
        },
        {
          "internalType": "string",
          "name": "_location",
          "type": "string"
        }
      ],
      "name": "createProduct",
      "outputs": [],
      "stateMutability": "nonpayable",
      "type": "function"
    },
    {
      "inputs": [
        {
          "internalType": "uint256",
          "name": "_productId",
          "type": "uint256"
        }
      ],
      "name": "certifyProduct",
      "outputs": [],
      "stateMutability": "nonpayable",
      "type": "function"
    },
    {
      "inputs": [
        {
          "internalType": "uint256",
          "name": "_productId",
          "type": "uint256"
        },
        {
          "internalType": "address",
          "name": "_distributor",
          "type": "address"
        }
      ],
      "name": "distributeProduct",
      "outputs": [],
      "stateMutability": "nonpayable",
      "type": "function"
    },
    {
      "inputs": [
        {
          "internalType": "uint256",
          "name": "_productId",
          "type": "uint256"
        },
        {
          "internalType": "address",
          "name": "_retailer",
          "type": "address"
        }
      ],
      "name": "sellProduct",
      "outputs": [],
      "stateMutability": "nonpayable",
      "type": "function"
    }
  ],
  "bytecode": "0x608060405234801561001057600080fd5b50611569806100206000396000f3fe608060405234801561001057600080fd5b50600436106100625760003560e01c80630b5691401461006757806312c89196146100835780632919e4c61461009f5780637acc0b20146100bb578063d6c85ec8146100f2578063e0f6ef871461010e575b600080fd5b610081600480360381019061007c9190610b53565b61012c565b005b61009d60048036038101906100989190610cd9565b610300565b005b6100b960048036038101906100b49190610d94565b610532565b005b6100d560048036038101906100d09190610d94565b610684565b6040516100e9989796959493929190610e79565b60405180910390f35b61010c60048036038101906101079190610b53565b6108d1565b005b610116610aa5565b6040516101239190610f0c565b60405180910390f35b600080600084815260200190815260200160002090503373ffffffffffffffffffffffffffffffffffffffff168160040160009054906101000a900473ffffffffffffffffffffffffffffffffffffffff1673ffffffffffffffffffffffffffffffffffffffff1614806101ef57503373ffffffffffffffffffffffffffffffffffffffff168160050160009054906101000a900473ffffffffffffffffffffffffffffffffffffffff1673ffffffffffffffffffffffffffffffffffffffff16145b61022e576040517f08c379a000000000000000000000000000000000000000000000000000000000815260040161022590610f99565b60405180910390fd5b8060050160149054906101000a900460ff1661027f576040517f08c379a000000000000000000000000000000000000000000000000000000000815260040161027690611005565b60405180910390fd5b818160050160006101000a81548173ffffffffffffffffffffffffffffffffffffffff021916908373ffffffffffffffffffffffffffffffffffffffff1602179055507fbdb79f0b777669cf4d01754a6d6b461bdd8d0f18b57c036e7d4bf3a567f3378483836040516102f3929190611025565b60405180910390a1505050565b600160008154809291906103139061107d565b91905055506040518061010001604052808581526020018481526020018381526020013373ffffffffffffffffffffffffffffffffffffffff168152602001600073ffffffffffffffffffffffffffffffffffffffff168152602001600173ffffffffffffffffffffffffffffffffffffffff16815260200160001515815260200182815250600080600154815260200190815260200160002060008201518160000190816103c291906112d1565b5060208201518160010190816103d891906112d1565b506040820151816002015560608201518160030160006101000a81548173ffffffffffffffffffffffffffffffffffffffff021916908373ffffffffffffffffffffffffffffffffffffffff16021790555060808201518160040160006101000a81548173ffffffffffffffffffffffffffffffffffffffff021916908373ffffffffffffffffffffffffffffffffffffffff16021790555060a08201518160050160006101000a81548173ffffffffffffffffffffffffffffffffffffffff021916908373ffffffffffffffffffffffffffffffffffffffff16021790555060c08201518160050160146101000a81548160ff02191690831515021790555060e08201518160060190816104ed91906112d1565b509050507fe8bb4e90e950f7b76a8c4e472b3b5e01d41c478f9eeaea36b4ba991f51133f9160015433604051610524929190611025565b60405180910390a150505050565b600080600083815260200190815260200160002090503373ffffffffffffffffffffffffffffffffffffffff168160030160009054906101000a900473ffffffffffffffffffffffffffffffffffffffff1673ffffffffffffffffffffffffffffffffffffffff16146105da576040517f08c379a00000000000000000000000000000000000000000000000000000000081526004016105d190611415565b60405180910390fd5b8060050160149054906101000a900460ff161561062c576040517f08c379a000000000000000000000000000000000000000000000000000000000815260040161062390611481565b60405180910390fd5b60018160050160146101000a81548160ff0219169083151502179055507f9de144f7cd35a6538aa8f315fc3f90cdd3ac805364ce9b153e7e0b6ff3eb8d1c826040516106789190610f0c565b60405180910390a15050565b60006020528060005260406000206000915090508060000180546106a7906110f4565b80601f01602080910402602001604051908101604052809291908181526020018280546106d3906110f4565b80156107205780601f106106f557610100808354040283529160200191610720565b820191906000526020600020905b81548152906001019060200180831161070357829003601f168201915b505050505090806001018054610735906110f4565b80601f0160208091040260200160405190810160405280929190818152602001828054610761906110f4565b80156107ae5780601f10610783576101008083540402835291602001916107ae565b820191906000526020600020905b81548152906001019060200180831161079157829003601f168201915b5050505050908060020154908060030160009054906101000a900473ffffffffffffffffffffffffffffffffffffffff16908060040160009054906101000a900473ffffffffffffffffffffffffffffffffffffffff16908060050160009054906101000a900473ffffffffffffffffffffffffffffffffffffffff16908060050160149054906101000a900460ff169080600601805461084e906110f4565b80601f016020809104026020016040519081016040528092919081815260200182805461087a906110f4565b80156108c75780601f1061089c576101008083540402835291602001916108c7565b820191906000526020600020905b8154815290600101906020018083116108aa57829003601f168201915b5050505050905088565b600080600084815260200190815260200160002090503373ffffffffffffffffffffffffffffffffffffffff168160030160009054906101000a900473ffffffffffffffffffffffffffffffffffffffff1673ffffffffffffffffffffffffffffffffffffffff16148061099457503373ffffffffffffffffffffffffffffffffffffffff168160040160009054906101000a900473ffffffffffffffffffffffffffffffffffffffff1673ffffffffffffffffffffffffffffffffffffffff16145b6109d3576040517f08c379a00000000000000000000000000000000000000000000000000000000081526004016109ca90611513565b60405180910390fd5b8060050160149054906101000a900460ff16610a24576040517f08c379a0000000000000000000000000000000000000000000000000000000008152600401610a1b90611005565b60405180910390fd5b818160040160006101000a81548173ffffffffffffffffffffffffffffffffffffffff021916908373ffffffffffffffffffffffffffffffffffffffff1602179055507f22173f684eaa3b90fe7c027542ce8449bab4c808bdd0e6fe93ce36bb132522f48383604051610a98929190611025565b60405180910390a1505050565b60015481565b6000604051905090565b600080fd5b600080fd5b6000819050919050565b610ad281610abf565b8114610add57600080fd5b50565b600081359050610aef81610ac9565b92915050565b600073ffffffffffffffffffffffffffffffffffffffff82169050919050565b6000610b2082610af5565b9050919050565b610b3081610b15565b8114610b3b57600080fd5b50565b600081359050610b4d81610b27565b92915050565b60008060408385031215610b6a57610b69610ab5565b5b6000610b7885828601610ae0565b9250506020610b8985828601610b3e565b9150509250929050565b600080fd5b600080fd5b6000601f19601f8301169050919050565b7f4e487b7100000000000000000000000000000000000000000000000000000000600052604160045260246000fd5b610be682610b9d565b810181811067ffffffffffffffff82111715610c0557610c04610bae565b5b80604052505050565b6000610c18610aab565b9050610c248282610bdd565b919050565b600067ffffffffffffffff821115610c4457610c43610bae565b5b610c4d82610b9d565b9050602081019050919050565b82818337600083830152505050565b6000610c7c610c7784610c29565b610c0e565b905082815260208101848484011115610c9857610c97610b98565b5b610ca3848285610c5a565b509392505050565b600082601f830112610cc057610cbf610b93565b5b8135610cd0848260208601610c69565b91505092915050565b60008060008060808587031215610cf357610cf2610ab5565b5b600085013567ffffffffffffffff811115610d1157610d10610aba565b5b610d1d87828801610cab565b945050602085013567ffffffffffffffff811115610d3e57610d3d610aba565b5b610d4a87828801610cab565b9350506040610d5b87828801610ae0565b925050606085013567ffffffffffffffff811115610d7c57610d7b610aba565b5b610d8887828801610cab565b91505092959194509250565b600060208284031215610daa57610da9610ab5565b5b6000610db884828501610ae0565b91505092915050565b600081519050919050565b600082825260208201905092915050565b60005b83811015610dfb578082015181840152602081019050610de0565b60008484015250505050565b6000610e1282610dc1565b610e1c8185610dcc565b9350610e2c818560208601610ddd565b610e3581610b9d565b840191505092915050565b610e4981610abf565b82525050565b610e5881610b15565b82525050565b60008115159050919050565b610e7381610e5e565b82525050565b6000610100820190508181036000830152610e94818b610e07565b90508181036020830152610ea8818a610e07565b9050610eb76040830189610e40565b610ec46060830188610e4f565b610ed16080830187610e4f565b610ede60a0830186610e4f565b610eeb60c0830185610e6a565b81810360e0830152610efd8184610e07565b90509998505050505050505050565b6000602082019050610f216000830184610e40565b92915050565b7f4f6e6c79206469737472696275746f72206f722072657461696c65722063616e60008201527f2073656c6c2070726f6475637400000000000000000000000000000000000000602082015250565b6000610f83602d83610dcc565b9150610f8e82610f27565b604082019050919050565b60006020820190508181036000830152610fb281610f76565b9050919050565b7f50726f64756374206e6f74206365727469666965640000000000000000000000600082015250565b6000610fef601583610dcc565b9150610ffa82610fb9565b602082019050919050565b6000602082019050818103600083015261101e81610fe2565b9050919050565b600060408201905061103a6000830185610e40565b6110476020830184610e4f565b9392505050565b7f4e487b7100000000000000000000000000000000000000000000000000000000600052601160045260246000fd5b600061108882610abf565b91507fffffffffffffffffffffffffffffffffffffffffffffffffffffffffffffffff82036110ba576110b961104e565b5b600182019050919050565b7f4e487b7100000000000000000000000000000000000000000000000000000000600052602260045260246000fd5b6000600282049050600182168061110c57607f821691505b60208210810361111f5761111e6110c5565b5b50919050565b60008190508160005260206000209050919050565b60006020601f8301049050919050565b600082821b905092915050565b6000600883026111877fffffffffffffffffffffffffffffffffffffffffffffffffffffffffffffffff8261114a565b611191868361114a565b95508019841693508086168417925050509392505050565b6000819050919050565b60006111ce6111c96111c484610abf565b6111a9565b610abf565b9050919050565b6000819050919050565b6111e8836111b3565b6111fc6111f4826111d5565b848454611157565b825550505050565b600090565b611211611204565b61121c8184846111df565b505050565b5b8181101561124057611235600082611209565b600181019050611222565b5050565b601f8211156112855761125681611125565b61125f8461113a565b8101602085101561126e578190505b61128261127a8561113a565b830182611221565b50505b505050565b600082821c905092915050565b60006112a86000198460080261128a565b1980831691505092915050565b60006112c18383611297565b9150826002028217905092915050565b6112da82610dc1565b67ffffffffffffffff8111156112f3576112f2610bae565b5b6112fd82546110f4565b611308828285611244565b600060209050601f83116001811461133b5760008415611329578287015190505b61133385826112b5565b86555061139b565b601f19841661134986611125565b60005b828110156113715784890151825560018201915060208501945060208101905061134c565b8683101561138e578489015161138a601f891682611297565b8355505b6001600288020188555050505b505050505050565b7f4f6e6c792070726f64756365722063616e20636572746966792070726f64756360008201527f7400000000000000000000000000000000000000000000000000000000000000602082015250565b60006113ff602183610dcc565b915061140a826113a3565b604082019050919050565b6000602082019050818103600083015261142e816113f2565b9050919050565b7f50726f6475637420616c72656164792063657274696669656400000000000000600082015250565b600061146b601983610dcc565b915061147682611435565b602082019050919050565b6000602082019050818103600083015261149a8161145e565b9050919050565b7f4f6e6c792070726f6475636572206f72206469737472696275746f722063616e60008201527f20646973747269627574652070726f6475637400000000000000000000000000602082015250565b60006114fd603383610dcc565b9150611508826114a1565b604082019050919050565b6000602082019050818103600083015261152c816114f0565b905091905056fea264697066735822122078e1da44aa048a35466a3bf9239aae6f44cf81f5ccdbee0403c9702598a62d0864736f6c63430008120033",
  "immutableReferences": {},
  "source": "// SPDX-License-Identifier: MIT\r\npragma solidity >=0.4.22 <0.9.0;\r\n\r\ncontract AgriContract {\r\n    struct Product {\r\n        string name;\r\n        string description;\r\n        uint256 price;\r\n        address producer;\r\n        address distributor;\r\n        address retailer;\r\n        bool isCertified;\r\n        string location;\r\n    }\r\n\r\n    mapping(uint256 => Product) public products;\r\n    uint256 public productCount;\r\n\r\n    event ProductCreated(uint256 productId, address producer);\r\n    event ProductCertified(uint256 productId);\r\n    event ProductDistributed(uint256 productId, address distributor);\r\n    event ProductSold(uint256 productId, address retailer);\r\n\r\n    function createProduct(string memory _name, string memory _description, uint256 _price, string memory _location) public {\r\n        productCount++;\r\n        products[productCount] = Product(_name, _description , _price, msg.sender, address(0), address(1), false, _location);\r\n        emit ProductCreated(productCount, msg.sender);\r\n    }\r\n\r\n    function certifyProduct(uint256 _productId) public {\r\n        Product storage product = products[_productId];\r\n        require(product.producer == msg.sender, \"Only producer can certify product\");\r\n        require(!product.isCertified, \"Product already certified\");\r\n        product.isCertified = true;\r\n        emit ProductCertified(_productId);\r\n    }\r\n\r\n    function distributeProduct(uint256 _productId, address _distributor) public {\r\n        Product storage product = products[_productId];\r\n        require(product.producer == msg.sender || product.distributor == msg.sender, \"Only producer or distributor can distribute product\");\r\n        require(product.isCertified, \"Product not certified\");\r\n        product.distributor = _distributor;\r\n        emit ProductDistributed(_productId, _distributor);\r\n    }\r\n\r\n    function sellProduct(uint256 _productId, address _retailer) public {\r\n        Product storage product = products[_productId];\r\n        require(product.distributor == msg.sender || product.retailer == msg.sender, \"Only distributor or retailer can sell product\");\r\n        require(product.isCertified, \"Product not certified\");\r\n        product.retailer = _retailer;\r\n        emit ProductSold(_productId, _retailer);\r\n    }\r\n}\r\n",
  "sourcePath": "C:\\Users\\aksha\\Farmtrust\\contracts\\AgriContract.sol",
  "compiler": {
    "name": "solc",
    "version": "0.8.18+commit.87f61d96.Emscripten.clang"
  },
  "schemaVersion": "3.4.12",
  "updatedAt": "2023-03-11T06:45:44.869Z",
  "devdoc": {
    "kind": "dev",
    "methods": {},
    "version": 1
  },
  "userdoc": {
    "kind": "user",
    "methods": {},
    "version": 1
  }
}