{
  "contractName": "DistributorRegistry",
  "abi": [
    {
      "inputs": [
        {
          "internalType": "address",
          "name": "",
          "type": "address"
        }
      ],
      "name": "distributors",
      "outputs": [
        {
          "internalType": "string",
          "name": "name",
          "type": "string"
        },
        {
          "internalType": "string",
          "name": "location",
          "type": "string"
        },
        {
          "internalType": "string",
          "name": "distribution",
          "type": "string"
        }
      ],
      "stateMutability": "view",
      "type": "function"
    },
    {
      "inputs": [
        {
          "internalType": "string",
          "name": "_name",
          "type": "string"
        },
        {
          "internalType": "string",
          "name": "_location",
          "type": "string"
        },
        {
          "internalType": "string",
          "name": "_distribution",
          "type": "string"
        }
      ],
      "name": "registerDistributor",
      "outputs": [],
      "stateMutability": "nonpayable",
      "type": "function"
    },
    {
      "inputs": [
        {
          "internalType": "string",
          "name": "_name",
          "type": "string"
        },
        {
          "internalType": "string",
          "name": "_location",
          "type": "string"
        },
        {
          "internalType": "string",
          "name": "_distribution",
          "type": "string"
        }
      ],
      "name": "updateDistributor",
      "outputs": [],
      "stateMutability": "nonpayable",
      "type": "function"
    },
    {
      "inputs": [],
      "name": "removeDistributor",
      "outputs": [],
      "stateMutability": "nonpayable",
      "type": "function"
    }
  ],
  "bytecode": "0x608060405234801561001057600080fd5b50610e62806100206000396000f3fe608060405234801561001057600080fd5b506004361061004c5760003560e01c80639bdc080114610051578063cc6427841461005b578063d30124641461008d578063f72b389e146100a9575b600080fd5b6100596100c5565b005b610075600480360381019061007091906106a7565b610138565b60405161008493929190610764565b60405180910390f35b6100a760048036038101906100a291906108e5565b6102fa565b005b6100c360048036038101906100be91906108e5565b610469565b005b6000803373ffffffffffffffffffffffffffffffffffffffff1673ffffffffffffffffffffffffffffffffffffffff1681526020019081526020016000206000808201600061011491906105d8565b60018201600061012491906105d8565b60028201600061013491906105d8565b5050565b600060205280600052604060002060009150905080600001805461015b906109bb565b80601f0160208091040260200160405190810160405280929190818152602001828054610187906109bb565b80156101d45780601f106101a9576101008083540402835291602001916101d4565b820191906000526020600020905b8154815290600101906020018083116101b757829003601f168201915b5050505050908060010180546101e9906109bb565b80601f0160208091040260200160405190810160405280929190818152602001828054610215906109bb565b80156102625780601f1061023757610100808354040283529160200191610262565b820191906000526020600020905b81548152906001019060200180831161024557829003601f168201915b505050505090806002018054610277906109bb565b80601f01602080910402602001604051908101604052809291908181526020018280546102a3906109bb565b80156102f05780601f106102c5576101008083540402835291602001916102f0565b820191906000526020600020905b8154815290600101906020018083116102d357829003601f168201915b5050505050905083565b60405160200161030990610a1d565b604051602081830303815290604052805190602001206000803373ffffffffffffffffffffffffffffffffffffffff1673ffffffffffffffffffffffffffffffffffffffff1681526020019081526020016000206000016040516020016103709190610aca565b60405160208183030381529060405280519060200120036103c6576040517f08c379a00000000000000000000000000000000000000000000000000000000081526004016103bd90610b2d565b60405180910390fd5b6040518060600160405280848152602001838152602001828152506000803373ffffffffffffffffffffffffffffffffffffffff1673ffffffffffffffffffffffffffffffffffffffff16815260200190815260200160002060008201518160000190816104349190610cee565b50602082015181600101908161044a9190610cee565b5060408201518160020190816104609190610cee565b50905050505050565b60405160200161047890610a1d565b604051602081830303815290604052805190602001206000803373ffffffffffffffffffffffffffffffffffffffff1673ffffffffffffffffffffffffffffffffffffffff1681526020019081526020016000206000016040516020016104df9190610aca565b6040516020818303038152906040528051906020012014610535576040517f08c379a000000000000000000000000000000000000000000000000000000000815260040161052c90610e0c565b60405180910390fd5b6040518060600160405280848152602001838152602001828152506000803373ffffffffffffffffffffffffffffffffffffffff1673ffffffffffffffffffffffffffffffffffffffff16815260200190815260200160002060008201518160000190816105a39190610cee565b5060208201518160010190816105b99190610cee565b5060408201518160020190816105cf9190610cee565b50905050505050565b5080546105e4906109bb565b6000825580601f106105f65750610615565b601f0160209004906000526020600020908101906106149190610618565b5b50565b5b80821115610631576000816000905550600101610619565b5090565b6000604051905090565b600080fd5b600080fd5b600073ffffffffffffffffffffffffffffffffffffffff82169050919050565b600061067482610649565b9050919050565b61068481610669565b811461068f57600080fd5b50565b6000813590506106a18161067b565b92915050565b6000602082840312156106bd576106bc61063f565b5b60006106cb84828501610692565b91505092915050565b600081519050919050565b600082825260208201905092915050565b60005b8381101561070e5780820151818401526020810190506106f3565b60008484015250505050565b6000601f19601f8301169050919050565b6000610736826106d4565b61074081856106df565b93506107508185602086016106f0565b6107598161071a565b840191505092915050565b6000606082019050818103600083015261077e818661072b565b90508181036020830152610792818561072b565b905081810360408301526107a6818461072b565b9050949350505050565b600080fd5b600080fd5b7f4e487b7100000000000000000000000000000000000000000000000000000000600052604160045260246000fd5b6107f28261071a565b810181811067ffffffffffffffff82111715610811576108106107ba565b5b80604052505050565b6000610824610635565b905061083082826107e9565b919050565b600067ffffffffffffffff8211156108505761084f6107ba565b5b6108598261071a565b9050602081019050919050565b82818337600083830152505050565b600061088861088384610835565b61081a565b9050828152602081018484840111156108a4576108a36107b5565b5b6108af848285610866565b509392505050565b600082601f8301126108cc576108cb6107b0565b5b81356108dc848260208601610875565b91505092915050565b6000806000606084860312156108fe576108fd61063f565b5b600084013567ffffffffffffffff81111561091c5761091b610644565b5b610928868287016108b7565b935050602084013567ffffffffffffffff81111561094957610948610644565b5b610955868287016108b7565b925050604084013567ffffffffffffffff81111561097657610975610644565b5b610982868287016108b7565b9150509250925092565b7f4e487b7100000000000000000000000000000000000000000000000000000000600052602260045260246000fd5b600060028204905060018216806109d357607f821691505b6020821081036109e6576109e561098c565b5b50919050565b600081905092915050565b50565b6000610a076000836109ec565b9150610a12826109f7565b600082019050919050565b6000610a28826109fa565b9150819050919050565b60008190508160005260206000209050919050565b60008154610a54816109bb565b610a5e81866109ec565b94506001821660008114610a795760018114610a8e57610ac1565b60ff1983168652811515820286019350610ac1565b610a9785610a32565b60005b83811015610ab957815481890152600182019150602081019050610a9a565b838801955050505b50505092915050565b6000610ad68284610a47565b915081905092915050565b7f4469737472696275746f72206e6f742072656769737465726564000000000000600082015250565b6000610b17601a836106df565b9150610b2282610ae1565b602082019050919050565b60006020820190508181036000830152610b4681610b0a565b9050919050565b60006020601f8301049050919050565b600082821b905092915050565b600060088302610b9a7fffffffffffffffffffffffffffffffffffffffffffffffffffffffffffffffff82610b5d565b610ba48683610b5d565b95508019841693508086168417925050509392505050565b6000819050919050565b6000819050919050565b6000610beb610be6610be184610bbc565b610bc6565b610bbc565b9050919050565b6000819050919050565b610c0583610bd0565b610c19610c1182610bf2565b848454610b6a565b825550505050565b600090565b610c2e610c21565b610c39818484610bfc565b505050565b5b81811015610c5d57610c52600082610c26565b600181019050610c3f565b5050565b601f821115610ca257610c7381610a32565b610c7c84610b4d565b81016020851015610c8b578190505b610c9f610c9785610b4d565b830182610c3e565b50505b505050565b600082821c905092915050565b6000610cc560001984600802610ca7565b1980831691505092915050565b6000610cde8383610cb4565b9150826002028217905092915050565b610cf7826106d4565b67ffffffffffffffff811115610d1057610d0f6107ba565b5b610d1a82546109bb565b610d25828285610c61565b600060209050601f831160018114610d585760008415610d46578287015190505b610d508582610cd2565b865550610db8565b601f198416610d6686610a32565b60005b82811015610d8e57848901518255600182019150602085019450602081019050610d69565b86831015610dab5784890151610da7601f891682610cb4565b8355505b6001600288020188555050505b505050505050565b7f4469737472696275746f7220616c726561647920726567697374657265640000600082015250565b6000610df6601e836106df565b9150610e0182610dc0565b602082019050919050565b60006020820190508181036000830152610e2581610de9565b905091905056fea2646970667358221220dd4adeadf4832fcedaa0ec8c3cf340c282efbb215540119eb18d2e1b856b27da64736f6c63430008120033",
  "immutableReferences": {},
  "source": "// SPDX-License-Identifier: MIT\r\npragma solidity >=0.4.22 <0.9.0;\r\n\r\ncontract DistributorRegistry {\r\n    struct Distributor {\r\n        string name;\r\n        string location;\r\n        string distribution;\r\n    }\r\n\r\n    mapping(address => Distributor) public distributors;\r\n\r\n    function registerDistributor(string memory _name, string memory _location, string memory _distribution) public {\r\n        require(keccak256(abi.encodePacked(distributors[msg.sender].name)) == keccak256(abi.encodePacked(\"\")), \"Distributor already registered\");\r\n        distributors[msg.sender] = Distributor(_name, _location, _distribution);\r\n    }\r\n\r\n    function updateDistributor(string memory _name, string memory _location, string memory _distribution) public {\r\n        require(keccak256(abi.encodePacked(distributors[msg.sender].name)) != keccak256(abi.encodePacked(\"\")), \"Distributor not registered\");\r\n        distributors[msg.sender] = Distributor(_name, _location, _distribution);\r\n    }\r\n\r\n    function removeDistributor() public {\r\n        delete distributors[msg.sender];\r\n    }\r\n}\r\n",
  "sourcePath": "C:\\Users\\aksha\\Farmtrust\\contracts\\DistributorRegistry.sol",
  "compiler": {
    "name": "solc",
    "version": "0.8.18+commit.87f61d96.Emscripten.clang"
  },
  "schemaVersion": "3.4.12",
  "updatedAt": "2023-03-11T06:45:44.884Z",
  "devdoc": {
    "kind": "dev",
    "methods": {},
    "version": 1
  },
  "userdoc": {
    "kind": "user",
    "methods": {},
    "version": 1
  }
}