{
  "contractName": "ProducerRegistry",
  "abi": [
    {
      "inputs": [
        {
          "internalType": "address",
          "name": "",
          "type": "address"
        }
      ],
      "name": "producers",
      "outputs": [
        {
          "internalType": "string",
          "name": "name",
          "type": "string"
        },
        {
          "internalType": "string",
          "name": "location",
          "type": "string"
        },
        {
          "internalType": "string",
          "name": "product",
          "type": "string"
        }
      ],
      "stateMutability": "view",
      "type": "function"
    },
    {
      "inputs": [
        {
          "internalType": "string",
          "name": "_name",
          "type": "string"
        },
        {
          "internalType": "string",
          "name": "_location",
          "type": "string"
        },
        {
          "internalType": "string",
          "name": "_product",
          "type": "string"
        }
      ],
      "name": "registerProducer",
      "outputs": [],
      "stateMutability": "nonpayable",
      "type": "function"
    },
    {
      "inputs": [
        {
          "internalType": "string",
          "name": "_name",
          "type": "string"
        },
        {
          "internalType": "string",
          "name": "_location",
          "type": "string"
        },
        {
          "internalType": "string",
          "name": "_product",
          "type": "string"
        }
      ],
      "name": "updateProducer",
      "outputs": [],
      "stateMutability": "nonpayable",
      "type": "function"
    },
    {
      "inputs": [],
      "name": "removeProducer",
      "outputs": [],
      "stateMutability": "nonpayable",
      "type": "function"
    }
  ],
  "bytecode": "0x608060405234801561001057600080fd5b50610e62806100206000396000f3fe608060405234801561001057600080fd5b506004361061004c5760003560e01c806326324eff146100515780634df2132714610083578063b10dc7b81461009f578063b919be3b146100bb575b600080fd5b61006b600480360381019061006691906106a7565b6100c5565b60405161007a93929190610764565b60405180910390f35b61009d600480360381019061009891906108e5565b610287565b005b6100b960048036038101906100b491906108e5565b6103f6565b005b6100c3610565565b005b60006020528060005260406000206000915090508060000180546100e8906109bb565b80601f0160208091040260200160405190810160405280929190818152602001828054610114906109bb565b80156101615780601f1061013657610100808354040283529160200191610161565b820191906000526020600020905b81548152906001019060200180831161014457829003601f168201915b505050505090806001018054610176906109bb565b80601f01602080910402602001604051908101604052809291908181526020018280546101a2906109bb565b80156101ef5780601f106101c4576101008083540402835291602001916101ef565b820191906000526020600020905b8154815290600101906020018083116101d257829003601f168201915b505050505090806002018054610204906109bb565b80601f0160208091040260200160405190810160405280929190818152602001828054610230906109bb565b801561027d5780601f106102525761010080835404028352916020019161027d565b820191906000526020600020905b81548152906001019060200180831161026057829003601f168201915b5050505050905083565b60405160200161029690610a1d565b604051602081830303815290604052805190602001206000803373ffffffffffffffffffffffffffffffffffffffff1673ffffffffffffffffffffffffffffffffffffffff1681526020019081526020016000206000016040516020016102fd9190610aca565b6040516020818303038152906040528051906020012014610353576040517f08c379a000000000000000000000000000000000000000000000000000000000815260040161034a90610b2d565b60405180910390fd5b6040518060600160405280848152602001838152602001828152506000803373ffffffffffffffffffffffffffffffffffffffff1673ffffffffffffffffffffffffffffffffffffffff16815260200190815260200160002060008201518160000190816103c19190610cee565b5060208201518160010190816103d79190610cee565b5060408201518160020190816103ed9190610cee565b50905050505050565b60405160200161040590610a1d565b604051602081830303815290604052805190602001206000803373ffffffffffffffffffffffffffffffffffffffff1673ffffffffffffffffffffffffffffffffffffffff16815260200190815260200160002060000160405160200161046c9190610aca565b60405160208183030381529060405280519060200120036104c2576040517f08c379a00000000000000000000000000000000000000000000000000000000081526004016104b990610e0c565b60405180910390fd5b6040518060600160405280848152602001838152602001828152506000803373ffffffffffffffffffffffffffffffffffffffff1673ffffffffffffffffffffffffffffffffffffffff16815260200190815260200160002060008201518160000190816105309190610cee565b5060208201518160010190816105469190610cee565b50604082015181600201908161055c9190610cee565b50905050505050565b6000803373ffffffffffffffffffffffffffffffffffffffff1673ffffffffffffffffffffffffffffffffffffffff168152602001908152602001600020600080820160006105b491906105d8565b6001820160006105c491906105d8565b6002820160006105d491906105d8565b5050565b5080546105e4906109bb565b6000825580601f106105f65750610615565b601f0160209004906000526020600020908101906106149190610618565b5b50565b5b80821115610631576000816000905550600101610619565b5090565b6000604051905090565b600080fd5b600080fd5b600073ffffffffffffffffffffffffffffffffffffffff82169050919050565b600061067482610649565b9050919050565b61068481610669565b811461068f57600080fd5b50565b6000813590506106a18161067b565b92915050565b6000602082840312156106bd576106bc61063f565b5b60006106cb84828501610692565b91505092915050565b600081519050919050565b600082825260208201905092915050565b60005b8381101561070e5780820151818401526020810190506106f3565b60008484015250505050565b6000601f19601f8301169050919050565b6000610736826106d4565b61074081856106df565b93506107508185602086016106f0565b6107598161071a565b840191505092915050565b6000606082019050818103600083015261077e818661072b565b90508181036020830152610792818561072b565b905081810360408301526107a6818461072b565b9050949350505050565b600080fd5b600080fd5b7f4e487b7100000000000000000000000000000000000000000000000000000000600052604160045260246000fd5b6107f28261071a565b810181811067ffffffffffffffff82111715610811576108106107ba565b5b80604052505050565b6000610824610635565b905061083082826107e9565b919050565b600067ffffffffffffffff8211156108505761084f6107ba565b5b6108598261071a565b9050602081019050919050565b82818337600083830152505050565b600061088861088384610835565b61081a565b9050828152602081018484840111156108a4576108a36107b5565b5b6108af848285610866565b509392505050565b600082601f8301126108cc576108cb6107b0565b5b81356108dc848260208601610875565b91505092915050565b6000806000606084860312156108fe576108fd61063f565b5b600084013567ffffffffffffffff81111561091c5761091b610644565b5b610928868287016108b7565b935050602084013567ffffffffffffffff81111561094957610948610644565b5b610955868287016108b7565b925050604084013567ffffffffffffffff81111561097657610975610644565b5b610982868287016108b7565b9150509250925092565b7f4e487b7100000000000000000000000000000000000000000000000000000000600052602260045260246000fd5b600060028204905060018216806109d357607f821691505b6020821081036109e6576109e561098c565b5b50919050565b600081905092915050565b50565b6000610a076000836109ec565b9150610a12826109f7565b600082019050919050565b6000610a28826109fa565b9150819050919050565b60008190508160005260206000209050919050565b60008154610a54816109bb565b610a5e81866109ec565b94506001821660008114610a795760018114610a8e57610ac1565b60ff1983168652811515820286019350610ac1565b610a9785610a32565b60005b83811015610ab957815481890152600182019150602081019050610a9a565b838801955050505b50505092915050565b6000610ad68284610a47565b915081905092915050565b7f50726f647563657220616c726561647920726567697374657265640000000000600082015250565b6000610b17601b836106df565b9150610b2282610ae1565b602082019050919050565b60006020820190508181036000830152610b4681610b0a565b9050919050565b60006020601f8301049050919050565b600082821b905092915050565b600060088302610b9a7fffffffffffffffffffffffffffffffffffffffffffffffffffffffffffffffff82610b5d565b610ba48683610b5d565b95508019841693508086168417925050509392505050565b6000819050919050565b6000819050919050565b6000610beb610be6610be184610bbc565b610bc6565b610bbc565b9050919050565b6000819050919050565b610c0583610bd0565b610c19610c1182610bf2565b848454610b6a565b825550505050565b600090565b610c2e610c21565b610c39818484610bfc565b505050565b5b81811015610c5d57610c52600082610c26565b600181019050610c3f565b5050565b601f821115610ca257610c7381610a32565b610c7c84610b4d565b81016020851015610c8b578190505b610c9f610c9785610b4d565b830182610c3e565b50505b505050565b600082821c905092915050565b6000610cc560001984600802610ca7565b1980831691505092915050565b6000610cde8383610cb4565b9150826002028217905092915050565b610cf7826106d4565b67ffffffffffffffff811115610d1057610d0f6107ba565b5b610d1a82546109bb565b610d25828285610c61565b600060209050601f831160018114610d585760008415610d46578287015190505b610d508582610cd2565b865550610db8565b601f198416610d6686610a32565b60005b82811015610d8e57848901518255600182019150602085019450602081019050610d69565b86831015610dab5784890151610da7601f891682610cb4565b8355505b6001600288020188555050505b505050505050565b7f50726f6475636572206e6f742072656769737465726564000000000000000000600082015250565b6000610df66017836106df565b9150610e0182610dc0565b602082019050919050565b60006020820190508181036000830152610e2581610de9565b905091905056fea26469706673582212200c6560ff40a7a14e13294af86d45a4a00518c28fe0b97527bfbde60df47c977864736f6c63430008120033",
  "immutableReferences": {},
  "source": "// SPDX-License-Identifier: MIT\r\npragma solidity >=0.4.22 <0.9.0;\r\n\r\ncontract ProducerRegistry {\r\n    struct Producer {\r\n        string name;\r\n        string location;\r\n        string product;\r\n    }\r\n\r\n    mapping(address => Producer) public producers;\r\n\r\n    function registerProducer(string memory _name, string memory _location, string memory _product) public {\r\n        require(keccak256(abi.encodePacked(producers[msg.sender].name)) == keccak256(abi.encodePacked(\"\")), \"Producer already registered\");\r\n        producers[msg.sender] = Producer(_name, _location, _product);\r\n    }\r\n\r\n    function updateProducer(string memory _name, string memory _location, string memory _product) public {\r\n        require(keccak256(abi.encodePacked(producers[msg.sender].name)) != keccak256(abi.encodePacked(\"\")), \"Producer not registered\");\r\n        producers[msg.sender] = Producer(_name, _location, _product);\r\n    }\r\n\r\n    function removeProducer() public {\r\n        delete producers[msg.sender];\r\n    }\r\n}\r\n",
  "sourcePath": "C:\\Users\\aksha\\Farmtrust\\contracts\\ProducerRegistry.sol",
  "compiler": {
    "name": "solc",
    "version": "0.8.18+commit.87f61d96.Emscripten.clang"
  },
  "schemaVersion": "3.4.12",
  "updatedAt": "2023-03-11T06:45:44.908Z",
  "devdoc": {
    "kind": "dev",
    "methods": {},
    "version": 1
  },
  "userdoc": {
    "kind": "user",
    "methods": {},
    "version": 1
  }
}