{
  "contractName": "RetailerRegistry",
  "abi": [
    {
      "inputs": [
        {
          "internalType": "address",
          "name": "",
          "type": "address"
        }
      ],
      "name": "retailers",
      "outputs": [
        {
          "internalType": "string",
          "name": "name",
          "type": "string"
        },
        {
          "internalType": "string",
          "name": "retailType",
          "type": "string"
        },
        {
          "internalType": "string",
          "name": "location",
          "type": "string"
        }
      ],
      "stateMutability": "view",
      "type": "function"
    },
    {
      "inputs": [
        {
          "internalType": "string",
          "name": "_name",
          "type": "string"
        },
        {
          "internalType": "string",
          "name": "_location",
          "type": "string"
        },
        {
          "internalType": "string",
          "name": "_retailType",
          "type": "string"
        }
      ],
      "name": "registerRetailer",
      "outputs": [],
      "stateMutability": "nonpayable",
      "type": "function"
    },
    {
      "inputs": [
        {
          "internalType": "string",
          "name": "_name",
          "type": "string"
        },
        {
          "internalType": "string",
          "name": "_location",
          "type": "string"
        },
        {
          "internalType": "string",
          "name": "_retailType",
          "type": "string"
        }
      ],
      "name": "updateRetailer",
      "outputs": [],
      "stateMutability": "nonpayable",
      "type": "function"
    },
    {
      "inputs": [],
      "name": "removeRetailer",
      "outputs": [],
      "stateMutability": "nonpayable",
      "type": "function"
    }
  ],
  "bytecode": "0x608060405234801561001057600080fd5b50610e62806100206000396000f3fe608060405234801561001057600080fd5b506004361061004c5760003560e01c806316479b851461005157806330b861071461005b5780634d6ec6e8146100775780639a268f3514610093575b600080fd5b6100596100c5565b005b6100756004803603810190610070919061078f565b610138565b005b610091600480360381019061008c919061078f565b6102a7565b005b6100ad60048036038101906100a89190610894565b610416565b6040516100bc93929190610940565b60405180910390f35b6000803373ffffffffffffffffffffffffffffffffffffffff1673ffffffffffffffffffffffffffffffffffffffff1681526020019081526020016000206000808201600061011491906105d8565b60018201600061012491906105d8565b60028201600061013491906105d8565b5050565b604051602001610147906109bd565b604051602081830303815290604052805190602001206000803373ffffffffffffffffffffffffffffffffffffffff1673ffffffffffffffffffffffffffffffffffffffff1681526020019081526020016000206000016040516020016101ae9190610aca565b6040516020818303038152906040528051906020012003610204576040517f08c379a00000000000000000000000000000000000000000000000000000000081526004016101fb90610b2d565b60405180910390fd5b6040518060600160405280848152602001838152602001828152506000803373ffffffffffffffffffffffffffffffffffffffff1673ffffffffffffffffffffffffffffffffffffffff16815260200190815260200160002060008201518160000190816102729190610cee565b5060208201518160010190816102889190610cee565b50604082015181600201908161029e9190610cee565b50905050505050565b6040516020016102b6906109bd565b604051602081830303815290604052805190602001206000803373ffffffffffffffffffffffffffffffffffffffff1673ffffffffffffffffffffffffffffffffffffffff16815260200190815260200160002060000160405160200161031d9190610aca565b6040516020818303038152906040528051906020012014610373576040517f08c379a000000000000000000000000000000000000000000000000000000000815260040161036a90610e0c565b60405180910390fd5b6040518060600160405280848152602001838152602001828152506000803373ffffffffffffffffffffffffffffffffffffffff1673ffffffffffffffffffffffffffffffffffffffff16815260200190815260200160002060008201518160000190816103e19190610cee565b5060208201518160010190816103f79190610cee565b50604082015181600201908161040d9190610cee565b50905050505050565b600060205280600052604060002060009150905080600001805461043990610a01565b80601f016020809104026020016040519081016040528092919081815260200182805461046590610a01565b80156104b25780601f10610487576101008083540402835291602001916104b2565b820191906000526020600020905b81548152906001019060200180831161049557829003601f168201915b5050505050908060010180546104c790610a01565b80601f01602080910402602001604051908101604052809291908181526020018280546104f390610a01565b80156105405780601f1061051557610100808354040283529160200191610540565b820191906000526020600020905b81548152906001019060200180831161052357829003601f168201915b50505050509080600201805461055590610a01565b80601f016020809104026020016040519081016040528092919081815260200182805461058190610a01565b80156105ce5780601f106105a3576101008083540402835291602001916105ce565b820191906000526020600020905b8154815290600101906020018083116105b157829003601f168201915b5050505050905083565b5080546105e490610a01565b6000825580601f106105f65750610615565b601f0160209004906000526020600020908101906106149190610618565b5b50565b5b80821115610631576000816000905550600101610619565b5090565b6000604051905090565b600080fd5b600080fd5b600080fd5b600080fd5b6000601f19601f8301169050919050565b7f4e487b7100000000000000000000000000000000000000000000000000000000600052604160045260246000fd5b61069c82610653565b810181811067ffffffffffffffff821117156106bb576106ba610664565b5b80604052505050565b60006106ce610635565b90506106da8282610693565b919050565b600067ffffffffffffffff8211156106fa576106f9610664565b5b61070382610653565b9050602081019050919050565b82818337600083830152505050565b600061073261072d846106df565b6106c4565b90508281526020810184848401111561074e5761074d61064e565b5b610759848285610710565b509392505050565b600082601f83011261077657610775610649565b5b813561078684826020860161071f565b91505092915050565b6000806000606084860312156107a8576107a761063f565b5b600084013567ffffffffffffffff8111156107c6576107c5610644565b5b6107d286828701610761565b935050602084013567ffffffffffffffff8111156107f3576107f2610644565b5b6107ff86828701610761565b925050604084013567ffffffffffffffff8111156108205761081f610644565b5b61082c86828701610761565b9150509250925092565b600073ffffffffffffffffffffffffffffffffffffffff82169050919050565b600061086182610836565b9050919050565b61087181610856565b811461087c57600080fd5b50565b60008135905061088e81610868565b92915050565b6000602082840312156108aa576108a961063f565b5b60006108b88482850161087f565b91505092915050565b600081519050919050565b600082825260208201905092915050565b60005b838110156108fb5780820151818401526020810190506108e0565b60008484015250505050565b6000610912826108c1565b61091c81856108cc565b935061092c8185602086016108dd565b61093581610653565b840191505092915050565b6000606082019050818103600083015261095a8186610907565b9050818103602083015261096e8185610907565b905081810360408301526109828184610907565b9050949350505050565b600081905092915050565b50565b60006109a760008361098c565b91506109b282610997565b600082019050919050565b60006109c88261099a565b9150819050919050565b7f4e487b7100000000000000000000000000000000000000000000000000000000600052602260045260246000fd5b60006002820490506001821680610a1957607f821691505b602082108103610a2c57610a2b6109d2565b5b50919050565b60008190508160005260206000209050919050565b60008154610a5481610a01565b610a5e818661098c565b94506001821660008114610a795760018114610a8e57610ac1565b60ff1983168652811515820286019350610ac1565b610a9785610a32565b60005b83811015610ab957815481890152600182019150602081019050610a9a565b838801955050505b50505092915050565b6000610ad68284610a47565b915081905092915050565b7f52657461696c6572206e6f742072656769737465726564000000000000000000600082015250565b6000610b176017836108cc565b9150610b2282610ae1565b602082019050919050565b60006020820190508181036000830152610b4681610b0a565b9050919050565b60006020601f8301049050919050565b600082821b905092915050565b600060088302610b9a7fffffffffffffffffffffffffffffffffffffffffffffffffffffffffffffffff82610b5d565b610ba48683610b5d565b95508019841693508086168417925050509392505050565b6000819050919050565b6000819050919050565b6000610beb610be6610be184610bbc565b610bc6565b610bbc565b9050919050565b6000819050919050565b610c0583610bd0565b610c19610c1182610bf2565b848454610b6a565b825550505050565b600090565b610c2e610c21565b610c39818484610bfc565b505050565b5b81811015610c5d57610c52600082610c26565b600181019050610c3f565b5050565b601f821115610ca257610c7381610a32565b610c7c84610b4d565b81016020851015610c8b578190505b610c9f610c9785610b4d565b830182610c3e565b50505b505050565b600082821c905092915050565b6000610cc560001984600802610ca7565b1980831691505092915050565b6000610cde8383610cb4565b9150826002028217905092915050565b610cf7826108c1565b67ffffffffffffffff811115610d1057610d0f610664565b5b610d1a8254610a01565b610d25828285610c61565b600060209050601f831160018114610d585760008415610d46578287015190505b610d508582610cd2565b865550610db8565b601f198416610d6686610a32565b60005b82811015610d8e57848901518255600182019150602085019450602081019050610d69565b86831015610dab5784890151610da7601f891682610cb4565b8355505b6001600288020188555050505b505050505050565b7f52657461696c657220616c726561647920726567697374657265640000000000600082015250565b6000610df6601b836108cc565b9150610e0182610dc0565b602082019050919050565b60006020820190508181036000830152610e2581610de9565b905091905056fea26469706673582212207529fda1a2138d39cb030cd6c3d7aa127e59342a12a12fc1458dc640efae389f64736f6c63430008120033",
  "immutableReferences": {},
  "source": "// SPDX-License-Identifier: MIT\r\npragma solidity >=0.4.22 <0.9.0;\r\n\r\ncontract RetailerRegistry {\r\n    struct Retailer {\r\n        string name;\r\n        string retailType;\r\n        string location;\r\n    }\r\n\r\n    mapping(address => Retailer) public retailers;\r\n\r\n    function registerRetailer(string memory _name, string memory _location, string memory _retailType) public {\r\n        require(keccak256(abi.encodePacked(retailers[msg.sender].name)) == keccak256(abi.encodePacked(\"\")) , \"Retailer already registered\");\r\n        retailers[msg.sender] = Retailer(_name, _location, _retailType);\r\n    }\r\n\r\n    function updateRetailer(string memory _name, string memory _location, string memory _retailType) public {\r\n        require(keccak256(abi.encodePacked(retailers[msg.sender].name)) != keccak256(abi.encodePacked(\"\")), \"Retailer not registered\");\r\n        retailers[msg.sender] = Retailer(_name, _location, _retailType);\r\n    }\r\n\r\n    function removeRetailer() public {\r\n        delete retailers[msg.sender];\r\n    }\r\n}\r\n",
  "sourcePath": "C:\\Users\\aksha\\Farmtrust\\contracts\\RetailerRegistry.sol",
  "compiler": {
    "name": "solc",
    "version": "0.8.18+commit.87f61d96.Emscripten.clang"
  },
  "schemaVersion": "3.4.12",
  "updatedAt": "2023-03-11T06:45:44.924Z",
  "devdoc": {
    "kind": "dev",
    "methods": {},
    "version": 1
  },
  "userdoc": {
    "kind": "user",
    "methods": {},
    "version": 1
  }
}