{
  "contractName": "UserRegistry",
  "abi": [
    {
      "inputs": [
        {
          "internalType": "address",
          "name": "",
          "type": "address"
        }
      ],
      "name": "users",
      "outputs": [
        {
          "internalType": "string",
          "name": "name",
          "type": "string"
        },
        {
          "internalType": "string",
          "name": "email",
          "type": "string"
        },
        {
          "internalType": "string",
          "name": "password",
          "type": "string"
        },
        {
          "internalType": "string",
          "name": "role",
          "type": "string"
        },
        {
          "internalType": "string",
          "name": "location",
          "type": "string"
        },
        {
          "internalType": "string",
          "name": "phone",
          "type": "string"
        },
        {
          "internalType": "string",
          "name": "dateJoined",
          "type": "string"
        }
      ],
      "stateMutability": "view",
      "type": "function"
    },
    {
      "inputs": [
        {
          "internalType": "string",
          "name": "_name",
          "type": "string"
        },
        {
          "internalType": "string",
          "name": "_email",
          "type": "string"
        },
        {
          "internalType": "string",
          "name": "_password",
          "type": "string"
        },
        {
          "internalType": "string",
          "name": "_role",
          "type": "string"
        },
        {
          "internalType": "string",
          "name": "_address",
          "type": "string"
        },
        {
          "internalType": "string",
          "name": "_phone",
          "type": "string"
        },
        {
          "internalType": "string",
          "name": "_dateJoined",
          "type": "string"
        }
      ],
      "name": "registerUser",
      "outputs": [],
      "stateMutability": "nonpayable",
      "type": "function"
    },
    {
      "inputs": [
        {
          "internalType": "string",
          "name": "_name",
          "type": "string"
        },
        {
          "internalType": "string",
          "name": "_email",
          "type": "string"
        },
        {
          "internalType": "string",
          "name": "_password",
          "type": "string"
        },
        {
          "internalType": "string",
          "name": "_role",
          "type": "string"
        },
        {
          "internalType": "string",
          "name": "_address",
          "type": "string"
        },
        {
          "internalType": "string",
          "name": "_phone",
          "type": "string"
        },
        {
          "internalType": "string",
          "name": "_dateJoined",
          "type": "string"
        }
      ],
      "name": "updateUser",
      "outputs": [],
      "stateMutability": "nonpayable",
      "type": "function"
    },
    {
      "inputs": [],
      "name": "removeUser",
      "outputs": [],
      "stateMutability": "nonpayable",
      "type": "function"
    }
  ],
  "bytecode": "0x608060405234801561001057600080fd5b50611323806100206000396000f3fe608060405234801561001057600080fd5b506004361061004c5760003560e01c80634ae8af0914610051578063a87430ba1461006d578063ad44e42c146100a3578063f944f4c7146100bf575b600080fd5b61006b60048036038101906100669190610af5565b6100c9565b005b61008760048036038101906100829190610cb9565b6102ae565b60405161009a9796959493929190610d65565b60405180910390f35b6100bd60048036038101906100b89190610af5565b6106a8565b005b6100c761088b565b005b866040516020016100da9190610e41565b604051602081830303815290604052805190602001206000803373ffffffffffffffffffffffffffffffffffffffff1673ffffffffffffffffffffffffffffffffffffffff1681526020019081526020016000206000016040516020016101419190610f50565b6040516020818303038152906040528051906020012014610197576040517f08c379a000000000000000000000000000000000000000000000000000000000815260040161018e90610fb3565b60405180910390fd5b6040518060e00160405280888152602001878152602001868152602001858152602001848152602001838152602001828152506000803373ffffffffffffffffffffffffffffffffffffffff1673ffffffffffffffffffffffffffffffffffffffff168152602001908152602001600020600082015181600001908161021d9190611174565b5060208201518160010190816102339190611174565b5060408201518160020190816102499190611174565b50606082015181600301908161025f9190611174565b5060808201518160040190816102759190611174565b5060a082015181600501908161028b9190611174565b5060c08201518160060190816102a19190611174565b5090505050505050505050565b60006020528060005260406000206000915090508060000180546102d190610e87565b80601f01602080910402602001604051908101604052809291908181526020018280546102fd90610e87565b801561034a5780601f1061031f5761010080835404028352916020019161034a565b820191906000526020600020905b81548152906001019060200180831161032d57829003601f168201915b50505050509080600101805461035f90610e87565b80601f016020809104026020016040519081016040528092919081815260200182805461038b90610e87565b80156103d85780601f106103ad576101008083540402835291602001916103d8565b820191906000526020600020905b8154815290600101906020018083116103bb57829003601f168201915b5050505050908060020180546103ed90610e87565b80601f016020809104026020016040519081016040528092919081815260200182805461041990610e87565b80156104665780601f1061043b57610100808354040283529160200191610466565b820191906000526020600020905b81548152906001019060200180831161044957829003601f168201915b50505050509080600301805461047b90610e87565b80601f01602080910402602001604051908101604052809291908181526020018280546104a790610e87565b80156104f45780601f106104c9576101008083540402835291602001916104f4565b820191906000526020600020905b8154815290600101906020018083116104d757829003601f168201915b50505050509080600401805461050990610e87565b80601f016020809104026020016040519081016040528092919081815260200182805461053590610e87565b80156105825780601f1061055757610100808354040283529160200191610582565b820191906000526020600020905b81548152906001019060200180831161056557829003601f168201915b50505050509080600501805461059790610e87565b80601f01602080910402602001604051908101604052809291908181526020018280546105c390610e87565b80156106105780601f106105e557610100808354040283529160200191610610565b820191906000526020600020905b8154815290600101906020018083116105f357829003601f168201915b50505050509080600601805461062590610e87565b80601f016020809104026020016040519081016040528092919081815260200182805461065190610e87565b801561069e5780601f106106735761010080835404028352916020019161069e565b820191906000526020600020905b81548152906001019060200180831161068157829003601f168201915b5050505050905087565b6040516020016106b79061126c565b604051602081830303815290604052805190602001206000803373ffffffffffffffffffffffffffffffffffffffff1673ffffffffffffffffffffffffffffffffffffffff16815260200190815260200160002060000160405160200161071e9190610f50565b6040516020818303038152906040528051906020012003610774576040517f08c379a000000000000000000000000000000000000000000000000000000000815260040161076b906112cd565b60405180910390fd5b6040518060e00160405280888152602001878152602001868152602001858152602001848152602001838152602001828152506000803373ffffffffffffffffffffffffffffffffffffffff1673ffffffffffffffffffffffffffffffffffffffff16815260200190815260200160002060008201518160000190816107fa9190611174565b5060208201518160010190816108109190611174565b5060408201518160020190816108269190611174565b50606082015181600301908161083c9190611174565b5060808201518160040190816108529190611174565b5060a08201518160050190816108689190611174565b5060c082015181600601908161087e9190611174565b5090505050505050505050565b6000803373ffffffffffffffffffffffffffffffffffffffff1673ffffffffffffffffffffffffffffffffffffffff168152602001908152602001600020600080820160006108da919061093e565b6001820160006108ea919061093e565b6002820160006108fa919061093e565b60038201600061090a919061093e565b60048201600061091a919061093e565b60058201600061092a919061093e565b60068201600061093a919061093e565b5050565b50805461094a90610e87565b6000825580601f1061095c575061097b565b601f01602090049060005260206000209081019061097a919061097e565b5b50565b5b8082111561099757600081600090555060010161097f565b5090565b6000604051905090565b600080fd5b600080fd5b600080fd5b600080fd5b6000601f19601f8301169050919050565b7f4e487b7100000000000000000000000000000000000000000000000000000000600052604160045260246000fd5b610a02826109b9565b810181811067ffffffffffffffff82111715610a2157610a206109ca565b5b80604052505050565b6000610a3461099b565b9050610a4082826109f9565b919050565b600067ffffffffffffffff821115610a6057610a5f6109ca565b5b610a69826109b9565b9050602081019050919050565b82818337600083830152505050565b6000610a98610a9384610a45565b610a2a565b905082815260208101848484011115610ab457610ab36109b4565b5b610abf848285610a76565b509392505050565b600082601f830112610adc57610adb6109af565b5b8135610aec848260208601610a85565b91505092915050565b600080600080600080600060e0888a031215610b1457610b136109a5565b5b600088013567ffffffffffffffff811115610b3257610b316109aa565b5b610b3e8a828b01610ac7565b975050602088013567ffffffffffffffff811115610b5f57610b5e6109aa565b5b610b6b8a828b01610ac7565b965050604088013567ffffffffffffffff811115610b8c57610b8b6109aa565b5b610b988a828b01610ac7565b955050606088013567ffffffffffffffff811115610bb957610bb86109aa565b5b610bc58a828b01610ac7565b945050608088013567ffffffffffffffff811115610be657610be56109aa565b5b610bf28a828b01610ac7565b93505060a088013567ffffffffffffffff811115610c1357610c126109aa565b5b610c1f8a828b01610ac7565b92505060c088013567ffffffffffffffff811115610c4057610c3f6109aa565b5b610c4c8a828b01610ac7565b91505092959891949750929550565b600073ffffffffffffffffffffffffffffffffffffffff82169050919050565b6000610c8682610c5b565b9050919050565b610c9681610c7b565b8114610ca157600080fd5b50565b600081359050610cb381610c8d565b92915050565b600060208284031215610ccf57610cce6109a5565b5b6000610cdd84828501610ca4565b91505092915050565b600081519050919050565b600082825260208201905092915050565b60005b83811015610d20578082015181840152602081019050610d05565b60008484015250505050565b6000610d3782610ce6565b610d418185610cf1565b9350610d51818560208601610d02565b610d5a816109b9565b840191505092915050565b600060e0820190508181036000830152610d7f818a610d2c565b90508181036020830152610d938189610d2c565b90508181036040830152610da78188610d2c565b90508181036060830152610dbb8187610d2c565b90508181036080830152610dcf8186610d2c565b905081810360a0830152610de38185610d2c565b905081810360c0830152610df78184610d2c565b905098975050505050505050565b600081905092915050565b6000610e1b82610ce6565b610e258185610e05565b9350610e35818560208601610d02565b80840191505092915050565b6000610e4d8284610e10565b915081905092915050565b7f4e487b7100000000000000000000000000000000000000000000000000000000600052602260045260246000fd5b60006002820490506001821680610e9f57607f821691505b602082108103610eb257610eb1610e58565b5b50919050565b60008190508160005260206000209050919050565b60008154610eda81610e87565b610ee48186610e05565b94506001821660008114610eff5760018114610f1457610f47565b60ff1983168652811515820286019350610f47565b610f1d85610eb8565b60005b83811015610f3f57815481890152600182019150602081019050610f20565b838801955050505b50505092915050565b6000610f5c8284610ecd565b915081905092915050565b7f5573657220616c72656164792072656769737465726564000000000000000000600082015250565b6000610f9d601783610cf1565b9150610fa882610f67565b602082019050919050565b60006020820190508181036000830152610fcc81610f90565b9050919050565b60006020601f8301049050919050565b600082821b905092915050565b6000600883026110207fffffffffffffffffffffffffffffffffffffffffffffffffffffffffffffffff82610fe3565b61102a8683610fe3565b95508019841693508086168417925050509392505050565b6000819050919050565b6000819050919050565b600061107161106c61106784611042565b61104c565b611042565b9050919050565b6000819050919050565b61108b83611056565b61109f61109782611078565b848454610ff0565b825550505050565b600090565b6110b46110a7565b6110bf818484611082565b505050565b5b818110156110e3576110d86000826110ac565b6001810190506110c5565b5050565b601f821115611128576110f981610eb8565b61110284610fd3565b81016020851015611111578190505b61112561111d85610fd3565b8301826110c4565b50505b505050565b600082821c905092915050565b600061114b6000198460080261112d565b1980831691505092915050565b6000611164838361113a565b9150826002028217905092915050565b61117d82610ce6565b67ffffffffffffffff811115611196576111956109ca565b5b6111a08254610e87565b6111ab8282856110e7565b600060209050601f8311600181146111de57600084156111cc578287015190505b6111d68582611158565b86555061123e565b601f1984166111ec86610eb8565b60005b82811015611214578489015182556001820191506020850194506020810190506111ef565b86831015611231578489015161122d601f89168261113a565b8355505b6001600288020188555050505b505050505050565b50565b6000611256600083610e05565b915061126182611246565b600082019050919050565b600061127782611249565b9150819050919050565b7f55736572206e6f74207265676973746572656400000000000000000000000000600082015250565b60006112b7601383610cf1565b91506112c282611281565b602082019050919050565b600060208201905081810360008301526112e6816112aa565b905091905056fea2646970667358221220cff8cf0d1bfb4fcf2d3b8ba577bea1f436b39b8d4817a9efad44e9055f2e81ff64736f6c63430008120033",
  "immutableReferences": {},
  "source": "// SPDX-License-Identifier: MIT\r\npragma solidity >=0.4.22 <0.9.0;\r\n\r\ncontract UserRegistry {\r\n    struct User {\r\n        string name;\r\n        string email;\r\n        string password;\r\n        string role;\r\n        string location;\r\n        string phone;\r\n        string dateJoined;\r\n    }\r\n\r\n    mapping(address => User) public users;\r\n\r\n    function registerUser(string memory _name, string memory _email, string memory _password, string memory _role, string memory _address, string memory _phone, string memory _dateJoined) public {\r\n        require(keccak256(abi.encodePacked(users[msg.sender].name)) == keccak256(abi.encodePacked(_name)), \"User already registered\");\r\n        users[msg.sender] = User(_name, _email, _password, _role, _address, _phone, _dateJoined);\r\n    }\r\n\r\n    function updateUser(string memory _name, string memory _email, string memory _password, string memory _role, string memory _address, string memory _phone, string memory _dateJoined) public {\r\n        require(keccak256(abi.encodePacked(users[msg.sender].name)) != keccak256(abi.encodePacked(\"\")), \"User not registered\");\r\n        users[msg.sender] = User(_name, _email, _password, _role, _address, _phone, _dateJoined);\r\n    }\r\n\r\n    function removeUser() public {\r\n        delete users[msg.sender];\r\n    }\r\n}\r\n",
  "sourcePath": "C:\\Users\\aksha\\Farmtrust\\contracts\\UserRegistry.sol",
  "compiler": {
    "name": "solc",
    "version": "0.8.18+commit.87f61d96.Emscripten.clang"
  },
  "schemaVersion": "3.4.12",
  "updatedAt": "2023-03-11T06:45:44.939Z",
  "devdoc": {
    "kind": "dev",
    "methods": {},
    "version": 1
  },
  "userdoc": {
    "kind": "user",
    "methods": {},
    "version": 1
  }
}